8=FIX.4.2|9=74|35=A|34=978|49=TESTSELL3|52=20190206-16:29:19.208|56=TESTBUY3|98=0|108=60|10=137|
8=FIX.4.2|9=163|35=D|34=972|49=TESTBUY3|52=20190206-16:25:10.403|56=TESTSELL3|11=141636850670842269979|21=2|38=100|40=1|54=1|55=AAPL|60=20190206-16:25:08.968|207=TO|6000=TEST1234|10=106|
8=FIX.4.2|9=271|35=8|34=974|49=TESTSELL3|52=20190206-16:26:09.059|56=TESTBUY3|6=174.51|11=141636850670842269979|14=100.0000000000|17=3636850671684357979|20=0|21=2|31=174.51|32=100|37=1005448|38=100|39=2|40=1|54=1|55=AAPL|60=20190206-16:26:08.435|150=2|151=0.0000000000|10=194
8=FIX.4.2|9=271|35=8|34=974|49=TESTSELL3|52=20190206-16:26:09.059|56=TESTBUY3|6=174.51|11=141636850670842269979|14=100.0000000000|17=3636850671684357978|20=0|21=2|31=174.52|32=100|37=1005448|38=100|39=2|40=1|54=1|55=AAPL|60=20190206-16:26:08.435|150=2|151=0.0000000000|10=194
8=FIX.4.2|9=271|35=8|34=974|49=TESTSELL3|52=20190206-16:26:09.059|56=TESTBUY3|6=174.51|11=141636850670842269979|14=100.0000000000|17=3636850671684357977|20=0|21=2|31=174.53|32=100|37=1005448|38=100|39=2|40=1|54=1|55=AAPL|60=20190206-16:26:08.435|150=2|151=0.0000000000|10=194
8=FIX.4.2|9=271|35=8|34=974|49=TESTSELL3|52=20190206-16:26:09.059|56=TESTBUY3|6=174.51|11=141636850670842269979|14=100.0000000000|17=3636850671684357976|20=0|21=2|31=174.54|32=1000|37=1005448|38=100|39=2|40=1|54=1|55=AAPL|60=20190206-16:26:08.435|150=2|151=0.0000000000|10=194
8=FIX.4.2|9=271|35=8|34=974|49=TESTSELL3|52=20190206-16:26:09.059|56=TESTBUY3|6=174.51|11=141636850670842269979|14=100.0000000000|17=3636850671684357975|20=0|21=2|31=174.55|32=1000|37=1005448|38=100|39=2|40=1|54=1|55=AAPL|60=20190206-16:26:08.435|150=2|151=0.0000000000|10=194
